:100000000C94EC000C9414010C9414010C94140145
:100010000C9414010C9414010C9414010C9414010C
:100020000C9414010C9414010C9414010C941401FC
:100030000C9414010C9414010C9414010C941401EC
:100040000C94401D0C9414010C947B1C0C94551CB6
:100050000C9414010C9414010C9414010C941401CC
:100060000C9414010C9414011F024502BD020803F4
:10007000E1029903ED02E203E203E203E203E20399
:10008000E203E101E203E203E203E203E203E2034B
:10009000E20333036903F2031B0461047F04990440
:1000A000E704EF042205B105BE05E4051906850540
:1000B000EB06440708071B070D0A50533320426C18
:1000C0007565746F6F7468204C6962726172792013
:1000D00053746172746564000D0A4F534320646960
:1000E00064206E6F74207374617274001718191A8B
:1000F000000000001B1C1D1E1F20212200000F10ED
:10010000000000200000004000000080000000010E
:1001100000000008000000020000000400000000D1
:1001200001000000020000000400000008000000C0
:1001300010000000200000004000000080000000CF
:100140000001000000080000001000000000000096
:100150000000000000FF27100032FF27100032FFD0
:1001600027100032FF2710003200000000000000BE
:100170000000000000000000000000000102040870
:10018000090A0C0D0E0F0000000800020100000318
:10019000040700000000000000000000000025002F
:1001A00028002B0000000000240027002A0004047F
:1001B000040404040404020202020202030303030F
:1001C00003030102040810204080010204081020EB
:1001D000010204081020E42711241FBECFEFD8E04D
:1001E000DEBFCDBF26E0A8EDB2E001C01D92A7336F
:1001F000B207E1F712E0A0E0B1E0E2EEF2E502C002
:1002000005900D92A83DB107D9F710E0CCEED0E0F3
:1002100004C02197FE010E944F29CB3ED107C9F7A8
:100220000E941E220C946F290C940000FC016C3576
:100230008AE0780729F4483E91E2590749F42BC037
:100240006D3085E0780721F44A3596E0590719F1B9
:10025000848581110FC0858581110CC0868581112F
:1002600009C08785811106C08089811103C08189F9
:10027000882379F06C34754061F4483692E0590770
:1002800051F04F3284E0580731F081E0453D534052
:1002900019F080E0089581E0089581E0603E09F062
:1002A00080E008958D599F4FFC01808108958D5BFA
:1002B0009F4FFC0180810895089581E0089580E0BA
:1002C000089580E00895089580E0089580E00895FD
:1002D0002F923F925F926F927F928F929F92AF92F6
:1002E000BF92CF92DF92EF92FF920F931F93CF9323
:1002F000DF93CDB7DEB728970FB6F894DEBF0FBEF9
:10030000CDBFFC01ED59FF4F2081222309F405C622
:100310006C010E94341D86010E5A1F4FD8018D902A
:100320009D90AD90BC90DC01CB0188199909AA0978
:10033000BB09B7FDF2C50E94341D1601B2E62B0EB3
:10034000311CF101E080DC01CB018E0D911DA11D5E
:10035000B11DF80180839183A283B38380E490E090
:100360009A8389835601F2E7AF0EB11C96012D5B8B
:100370003F4F3E832D83C6018F5B9F4F98878F83AE
:1003800085019E012F5F3F4FF601E95BFF4F4081E2
:10039000AD81BE816C91FC01808191810E948D12A2
:1003A0008B7F09F00FC2D501EC918E2F90E0FC01FC
:1003B0003197E731F10508F005C2EC5CFF4F0C9472
:1003C0004F29F601E958FF4F80818111FBC1860159
:1003D00001591F4FF801808191819C012160318377
:1003E0002083D601AB58BF4F2C91213061F4119678
:1003F0002C91203109F0E6C112962C91D601D896A5
:100400002C9381642DC1293009F0DCC1D601AA5892
:10041000BF4F2C91203109F0D5C112969601225878
:100420003F4F6D91AD014D565109FA016083A217FE
:10043000B307B9F78162D8018D939C93C3C1F601CC
:10044000EF58FF4F80818530E8F0D601DB968C9124
:100450009601205C3F4F811104C0D9018C91882303
:1004600089F01082D601D9961C92D997DB961C92FE
:10047000DB97DE961C92D9011C928AE0D601A65920
:10048000BF4F8C9380818F5F9CC1F601EC58FF4F6A
:100490000081002309F496C1F02EFF0CFF0CFF0C25
:1004A00010E04601B7E68B0E911CD601A859BF4F4C
:1004B000960127593F4FA601405C5F4FC6018F0D43
:1004C000911DBC016A587F4FFB01E080F401E0827E
:1004D0006F5F7F4FFB0160816C9388589F4FFC01D9
:1004E0008081F9018083F60193AD9923F1F08111A8
:1004F0001CC0862F8570C9F08E2D8C70B1F081E004
:10050000EB59FF4F8083F60126E0129FE00DF11DAD
:100510001124EB58FF4FD6015496C6014A962191FB
:100520002D93A817B907D9F71BC0FA01808188233A
:10053000F1F0862F8570D9F08E2D887CC1F0F60100
:1005400026E0129FE00DF11D1124EB58FF4FD6015C
:100550005496C6014A9621912D93A817B907D9F749
:10056000F601E159FF4F80819181806879C01F5F5A
:1005700083E0F80E0113A2CF25C1F601E159FF4F28
:1005800020813181C901916091838083D601AC586B
:10059000BF4F8C91811113C012968C918F7090E097
:1005A000982F882711974C91842BD60153969C93B2
:1005B0008E935297226031603183208303C186E09D
:1005C000FDC0F601EC58FF4F80818111FBC03597CB
:1005D000808191818D7F846043C0F601EC58FF4F8C
:1005E00080818111EFC03796960127563F4F819148
:1005F000DF01A256B1098C93882319F02E173F070B
:10060000B1F7F601E159FF4F80819181886028C0E0
:10061000F601EC58FF4FC60186589F4F2191DF012C
:10062000A156B1092C93E817F907C1F78081F601AB
:10063000E959FF4F808374969081739790837496E5
:10064000208173972083957029F0887C19F081E0D0
:10065000F60187AFF601E159FF4F808191818061FA
:1006600091838083AFC0D601DB968C91882321F0E3
:10067000C6010E947B11A6C0F60182859385892B55
:10068000B9F78EE0D5018C9384E0ED58FF4F80835D
:1006900086E031968083F6018489EB58FF4F808392
:1006A000D60155968C91559731968083F6018689AF
:1006B000E958FF4F808357968C91579731968083E6
:1006C000F601808DE758FF4F808359968C913196C3
:1006D00028C08CE0F501808384E0F601ED58FF4FDF
:1006E000808386E031968083D60154968C9154970E
:1006F00031968083F6018589EA58FF4F80835696AC
:100700008C91569731968083F6018789E858FF4F80
:10071000808358968C9131968083F601818DE658BE
:10072000FF4F808349E050E0B501C6010E940611E9
:1007300049C0D601AC58BF4F8C9181111CC0D60165
:10074000DB968C91DB97882349F0D9968C91D997C9
:10075000811104C081E0D9968C9334C0F601E05C2D
:10076000FF4F8081882371F1F60186AD81112AC087
:1007700081E086AF27C0F60192898389E159FF4F56
:10078000208131812B7F3183208326E0F501208376
:1007900024E0F601ED58FF4F208323E02C9332969E
:1007A000908331968F70808383E13196808346E019
:1007B00050E0B501C6010E94061180E1F601E6593C
:1007C000FF4F8083860106591F4FD801EC918E2F71
:1007D00090E08131910508F057C3FC01E55BFF4FC4
:1007E0000C944F297601BBE6EB0EF11CF7018081DA
:1007F00091810196918380833296208131812817DF
:10080000390708F041C332961182108283E0D50186
:100810008C938CE0349680833196108243E050E0D4
:10082000B501C6010E94061181E0F8018083D7015D
:100830001D921C9229C3F601E559FF4F80819181D9
:10084000019691838083D601A159BF4F2C9120FF3F
:100850001BC01182108282E0F801808384E2D501FE
:100860008C938CE0F601ED58FF4F808383E0319646
:10087000808384E03196808388E03196808331964E
:10088000108246E050E036C0D601A359BF4F2D91EB
:100890003C9111972817390708F0F6C24AE0429FA9
:1008A000C001439F900D1124813D27E0920710F075
:1008B00080ED97E08D939C93D8011C921182108259
:1008C000E3C2F601E159FF4F8081918180FFDCC2D4
:1008D00023E0D8012C938F7D9183808389E0F501FB
:1008E000808380E1F601ED58FF4F808331961082BE
:1008F00043E050E0B501C6010E940611C5C2F601F1
:10090000E159FF4F8081918185FFBEC28F7B91832A
:10091000808381E0D5018C9380E134968083319689
:10092000108243E050E0B501C6010E94061184E048
:10093000A9C2F601E159FF4F808186FFA5C2D60109
:100940001896ED91FC911997309709F446C083E110
:10095000D5018C938CE0D601AD58BF4F8C93DF014D
:100960000D900020E9F7C6018C589F4F2A2F2E1BAF
:10097000DC012C9340E0242F30E0DF010D900020BB
:10098000E9F71197AE1BBF0BC601820F931F2A1701
:100990003B0750F48B589F4F2E0F3F1FD9012C91CE
:1009A000DC012C934F5FE7CFDC01AB58BF4F1C92AB
:1009B000DF010D900020E9F7AD014E1B5F0B4D5F8D
:1009C0005F4FB501C6010E94061185E05BC2F601CA
:1009D000E159FF4F808180FF57C286E029C2F601AE
:1009E000E05CFF4F8081811105C0F60183AD882353
:1009F00009F41DC2F601E159FF4F808191818F7783
:100A00009183808381E0D5018C9384E03496808348
:100A100085E03196808383E3319680838BE831963D
:100A200080838EE93196808380E3319680838AE0EB
:100A30003196808348E050E0B501C6010E9406115E
:100A400087E020C27601BFE6EB0EF11CF701808142
:100A500087FF1AC282E0D5018C934601B3E78B0E63
:100A6000911C84E0582EF40150823601F4E76F0E99
:100A7000711CD3011C9243E050E0B501C6010E94F5
:100A80000611F601EB59FF4F8081882309F467C0F6
:100A9000F70180819181877F9183808389E1D501EE
:100AA0008C93F40150828AE0D3018C93F6018489FF
:100AB000EB58FF4F8083D60155968C915597319610
:100AC0008083F6018689E958FF4F808357968C9181
:100AD000579731968083F601808DE758FF4F8083CA
:100AE00059968C913196808381E03196808331963E
:100AF000108231961082319610824DE050E0B5019F
:100B0000C6010E9406118CE0BDC1960121593F4FDC
:100B10003C832B83D9016D907C9063FEB5C1760137
:100B2000BAE1EB0EF11C48E050E069E772E0C70162
:100B30000E946129892B09F4C7C0F601E759FF4FCC
:100B40008081882309F4F4C0F60183AD882309F479
:100B500009C1EB59FF4F8081882309F403C188E064
:100B600067C1F601E159FF4F808180FF8DC13A973F
:100B70001082C6010E943C1189E084C1F601E1594E
:100B8000FF4F8081918190FF7FC181FF19C081E17A
:100B9000D5018C9384E03496808382E03196808303
:100BA000F60192898389EB58FF4F908331968F70BD
:100BB000808345E050E0B501C6010E94061137C1AF
:100BC000C6010E943C1160C1F60181AD81115CC17A
:100BD00083AD811159C186AD811156C1E05CFF4FD3
:100BE0008081811151C1BF96808191818F7E9183D7
:100BF00080838AE1D5018C938CE03496808381E0F8
:100C000031968083F60180859185EB58FF4F892BC3
:100C100011F083E001C082E0808344E050E0B50140
:100C2000C6010E94061181E0D60114968C938BE0D8
:100C300029C1F601E159FF4F8081918184FF40C0B5
:100C4000D60114961C921497877F9183808389E143
:100C5000F501808384E0F601ED58FF4F80838AE040
:100C60003196808354968C91549731968083F60107
:100C70008589EA58FF4F808356968C915697319616
:100C80008083F6018789E858FF4F808358968C91BE
:100C900031968083F601818DE658FF4F808381E095
:100CA000319680833196108231961082319610826F
:100CB0004DE050E0B501C6010E9406118CE0B8C0BD
:100CC00082FFE2C080E1DEC055245394F60152AEAB
:100CD00014AE15AE4601F4E68F0E911CD4011C92A1
:100CE00046E150E062E872E0C7010E946129892B69
:100CF00019F4F60154AE21CF46E150E069E972E003
:100D0000C7010E946129892B31F4D4015C92F6015C
:100D100054AE55AE12CF43E150E060EB72E0C70134
:100D20000E946129892B09F008CFD4015C9205CF7C
:100D300031978081853209F007CF319780818830E3
:100D400009F002CF43E150E064EC72E0C7010E9479
:100D50006129892B09F0F8CE81E0F601EA59FF4FAD
:100D60008083F2CEE89461F8AB81BC816D927C9275
:100D700089E0F501808384E0F601ED58FF4F808320
:100D800087E031968083D60154968C9154973196A2
:100D90008083F6018589EA58FF4F808356968C91AF
:100DA000569731968083F6018789E858FF4F8083F4
:100DB00058968C9131968083F601818DE658FF4FCD
:100DC0008083319610824AE050E0B501C6010E944E
:100DD00006118DE02DC0F601E159FF4F808181FFA2
:100DE00053C0D601AA59BF4F8C91882321F081E0CE
:100DF000D601DE968C93D60115961C921597169601
:100E00001C92169717961C92118210828FE03AC09E
:100E1000F601E559FF4F808191810196893E23E0DB
:100E2000920718F4918380832FC0118210828AE088
:100E3000D8018C9329C0F601E159FF4F808182FFD0
:100E400023C01182108280E4F501282F11922A9587
:100E5000E9F7F601EE54FF4FDF011D928A95E9F79D
:100E6000F60113AE12AE11AEEB59FF4F1082B597DB
:100E70001082D601DF961C92DF97DE961C92B69602
:100E800010828AE0F801808380E490E09A8389836D
:100E90005601F2EBAF0EB11CF601E65BFF4FD1013C
:100EA000EC9085019E012F5F3F4F4081ED81FE81D7
:100EB0006081AF81B8858D919C910E948D120C55F7
:100EC0001109F601E25AFF4F6F01811116C08981A5
:100ED0009A81892B91F07801D7018D919D917D01A7
:100EE000009741F0DC01ED91FC910190F081E02D43
:100EF000B5010995EC14FD0479F7F8018191919100
:100F00008F01009739F0DC01ED91FC910280F381B3
:100F1000E02D09950C151D0581F780E028960FB688
:100F2000F894DEBF0FBECDBFDF91CF911F910F911F
:100F3000FF90EF90DF90CF90BF90AF909F908F90F9
:100F40007F906F905F903F902F9008952F923F92E7
:100F50004F925F926F927F928F929F92AF92BF92C9
:100F6000CF92DF92EF92FF920F931F93CF93DF9375
:100F7000CDB7DEB7AE970FB6F894DEBF0FBECDBFCC
:100F80003C01D22EFC01E95BFF4F20812CA710828F
:100F90001C0181E4280E311CD1010D911C9123010B
:100FA000B3E44B0E511CD801ED91FC910190F081FE
:100FB000E02DD2016C91C80109957C01892B11F4B7
:100FC00086EDB9C16CE271E080E090E00E94FA1C0D
:100FD000F201408160E0D1018D919C910E94DA1074
:100FE000B82E882319F0F701148298C1D7011496FE
:100FF0001C92D801ED91FC910190F081E02DD2017D
:101000006C91C80109950097D9F2FC01D482C30103
:101010008C5B9F4F9BA78AA7892B09F489C1D201BA
:101020001C91612FF101808191810E941A1CFC01A9
:10103000892B09F471C112838AA59BA591838083B2
:1010400081E08383430190E6890E911CD4018D9148
:101050009C918C34954089F48301025A1F4FF8010A
:10106000808191818836F2E09F07C1F08F3224E0C1
:101070009207A1F0853D934089F0A12CF3013296AF
:101080007F018E010F5E1F4F6301FEE5CF0ED11C65
:10109000C3018F5A9F4F9EA78DA7E6C064E670E0FC
:1010A00080E090E00E94FA1C21E0AAA5BBA54C912B
:1010B000F2016081D1018D919C910E940612B82E9F
:1010C00081112CC1F3018485811110C085858111A6
:1010D0000DC0868581110AC08785811107C080896E
:1010E000811104C08189882309F46AC0D8018D91D7
:1010F0009C91A301445F5F4F8836B2E09B0719F0D3
:101100008F32944049F581E089831A82D301529647
:10111000CE0103962E91FC012193CF014A175B0764
:10112000C9F71F921F92CE0101969F938F9378E08B
:10113000872E912CE8E0AE2EB12CF3E0CF2EA5EF58
:10114000EA2E09E021E2AAA5BBA54C91F20160813B
:10115000D1018D919C912EC085E0898380E18887A3
:1011600081E0898782E08A8782E18B87FA01DE014C
:101170001296CE01089621912D938A179B07D9F7D5
:101180001F921F92CE0101969F938F933BE0832E77
:10119000912C4BE0A42EB12C53E0C52E65E0E62E39
:1011A00009E021E2EAA5FBA54081D2016C91F101A1
:1011B000808191810E94FB0F0F900F900F900F90F4
:1011C00020E0AAA5BBA54C91F2016081D1018D91CF
:1011D0009C910E94061240E0F2016081D1018D9144
:1011E0009C910E94DA10D301ED91FC910480F5816D
:1011F000E02DC301099581ED9EC0F40180819181AC
:101200008C35FAE09F07A1F5D6018D919C91883E1F
:101210009142B9F5E4E0F1E0FA83E983FC82EB82E4
:101220001E86188A1F8619A21AA21BA219A61F833E
:101230000E83198708878D818B878A871D870C8786
:101240009E012F5F3F4F4A2DD2016C91F1018081A9
:1012500091810E942712B82E811160C0ADA5BEA554
:101260008C91843098F4A394BCA5AB12C6CF0EC069
:101270008D30954031F4D6018D919C918A35964000
:1012800049F28AE091E09A838983C8CFF301EF5A4B
:10129000FF4F10811430A8F1F2010081602FD101BD
:1012A0008D919C910E941A1CFC01892BA9F102834B
:1012B0008AA59BA5918380831383F301E05BFF4F95
:1012C0002081DC014C91F2016081D1018D919C91D2
:1012D0000E940612B82E811121C0F301E359FF4F7D
:1012E00084E690E091838083329711821082319757
:1012F0001082F3011482ED59FF4F81E0808380E07A
:101300001AC040E0D2016C91F101808191810E946C
:10131000DA1021EDB22E02C096EDB92ED301ED9177
:10132000FC910480F581E02DC30109958B2D03C04C
:1013300088EDB82EF3CFAE960FB6F894DEBF0FBE91
:10134000CDBFDF91CF911F910F91FF90EF90DF9074
:10135000CF90BF90AF909F908F907F906F905F9055
:101360004F903F902F900895EF92FF920F931F930D
:10137000CF93DF93EC01AC014C5B5F4F80E090E0DA
:10138000DA011C92382F811102C028E001C020E050
:10139000FA012183FC01EE0FFF1FDF01A80FB91F27
:1013A000AC0FBD1FAA5BBF4F2C912E7F2D7F2C93BE
:1013B000311102C02FE001C021E0E80FF91FEC0F4E
:1013C000FD1FEA5BFF4F220F220F30813370232B6A
:1013D000208301964D5F5F4F8430910589F68E0121
:1013E0000A5A1F4F7E01FEE5EF0EF11CD8018D91C8
:1013F0009D918D01009739F0DC01ED91FC91048005
:10140000F581E02D09950E151F0581F719AE1AAE6D
:101410001EAE1FAEFE01EA59FF4F1082B397108235
:101420003E9681E08083319610821182128213826F
:1014300070961082CD59DF4F1882DF91CF911F91A6
:101440000F91FF90EF900895CF93DF93EC010E94EE
:10145000B409FE01EF5BFF4F80819181CD5BDF4FCF
:10146000DC01ED91FC910480F581E02D6881099506
:1014700080E0DF91CF9108952F923F924F925F923B
:101480006F927F928F929F92AF92BF92CF92EF9284
:10149000FF920F931F93CF93DF93CDB7DEB768977B
:1014A0000FB6F894DEBF0FBECDBF3C01162FF42E51
:1014B000022F0E94B40993012D5B3F4F388F2F8B71
:1014C000D9018C91811192C0F301EF5BFF4FFC8B2E
:1014D000EB8B20803180D101ED91FC910190F08166
:1014E000E02D60E0C10109952C01009709F480C04E
:1014F000FC010190F081E02DFE8BED8BEF2B09F4C8
:1015000079C0C3018C5B9F4FD20111969C938E933F
:1015100014960C931F921F92CE0101969F938F9366
:1015200082E1882E912C92E1A92EB12CCC24C39477
:10153000E12C06E020E840E060E0EB89FC89808156
:1015400091810E94FB0FED89FE89D201ED93FC93FE
:101550000F900F900F900F90811139C0D101ED9134
:10156000FC910280F381E02D2F2D40E0612FC1011D
:101570000995EF89F88D80838823F1F19D81993059
:10158000A1F0F301EB5BFF4F8885808332968A8957
:101590008083799689859A859183808332978B851C
:1015A0009C859183808380EE28C040E0682FAB89C2
:1015B000BC898D919C910E94DA10D301ED91FC9130
:1015C0000480F581E02DC301099581ED16C08D30B1
:1015D00011F41DE001C011EED301ED91FC910480E6
:1015E000F581E02DC3010995812F07C089ED05C064
:1015F00086ED03C087ED01C084ED68960FB6F894C0
:10160000DEBF0FBECDBFDF91CF911F910F91FF9035
:10161000EF90CF90BF90AF909F908F907F906F9002
:101620005F904F903F902F900895CF93DF93FC01F0
:10163000DA018281882319F0813029F01FC03483B8
:10164000238381E08283838194810097B1F02D917F
:101650003C911197232B91F0019794838383EB01A5
:10166000888199810196998388838D919C911197A6
:10167000019711969C938E93E6CF128281E023818D
:101680003481232B09F080E0DF91CF910895CF932F
:10169000CFB7F8948091E002811124C0E8EBF1E02B
:1016A0008491ECECF1E09491E82FF0E0EE0FFF1F55
:1016B000EC55FE4FA591B491EC91E92321F461E042
:1016C0008AE00E94AD1C8AE00E94021E8CB58061F7
:1016D0008CBD8CB580648CBD8DE00E94021E8BE0B9
:1016E0000E94021E8091E0028F5F8093E002CFBFD4
:1016F000CF9108952A9808952A9A089508958EBD45
:1017000000000DB407FEFDCF8EB508958CBD9DBDC4
:1017100008953F924F925F926F927F928F929F9225
:10172000AF92BF92CF92DF92EF92FF920F931F93EF
:10173000CF93DF9300D000D0CDB7DEB72B013C01B3
:10174000042F49016093DF037093E0038093E1036A
:101750009093E20381E08093DE031092E303E12C97
:10176000F12C73E0C72ED12CE3E2AE2EB12C0E94F7
:10177000951E8475843579F19091E703A601491B84
:101780005109E2E1F1E090E0292F30E0241735071C
:1017900014F5933010F4608101C06FEF382E3622BB
:1017A0003196311016C0933028F4F901E15FFE4FF5
:1017B000108101C010E51F5F933028F4F901E45F48
:1017C000FE4F608101C060E040E08CE20E946C1E30
:1017D00005C09F5FD9CF10E062E0362E2FEFE21AEE
:1017E000F20A82E0381209C092E3E916F10409F422
:1017F0009CC0C5010197F1F7BACFE2E3EE16F10400
:1018000009F493C0113461F0113529F0113331F42A
:1018100050E4F52E07C044E4F42E04C0F12C02C0BD
:1018200032E4F32E4C825B82A30166277727942F44
:101830009C71842F8370F8E09F9F800D1124886035
:101840008A832A0125E0569447942A95E1F7498234
:1018500080E591E00E94860B60E08091E4030E94A5
:10186000AD1C8F2D0E947F0BCE0101967C016E0175
:1018700095E0C90ED11CF70181917F010E947F0B79
:10188000CE14DF04C1F7802F0E947F0B6401F12C7E
:101890000F1551F0F8E0FF1639F0F60181916F0154
:1018A0000E947F0BF394F4CF61E08091E4030E94E7
:1018B000AD1C0E947E0B80E591E00E94860B60E0EB
:1018C0008091E4030E94AD1C113451F0113521F0D8
:1018D000113321F481E805C084E803C080E001C031
:1018E00082E80E947F0B61E08091E4030E94AD1CBE
:1018F0000E947E0BE12CF12C115083E2C82ED12CDA
:10190000FFEFEF1AFF0A812F0E94491E83FF08C0D4
:1019100022E3E216F10459F0C6010197F1F7F0CF86
:1019200082E3E816F10429F402C086E003C087E0F0
:1019300001C080E00F900F900F900F90DF91CF913A
:101940001F910F91FF90EF90DF90CF90BF90AF90DD
:101950009F908F907F906F905F904F903F900895F1
:101960000F931F93880F991F880F991FFC01EC7F1D
:10197000F370E150FF4F05911591259134918091BD
:10198000070490910804A0910904B0910A04B901D8
:10199000A8014095509560957095482359236A2376
:1019A0007B234093070450930804609309047093C9
:1019B0000A0480239123A223B32321E0892B8A2BBD
:1019C0008B2B09F420E0822F1F910F910895AF9285
:1019D000BF92CF92DF92EF92FF920F931F93CF931C
:1019E000DF9300D000D0CDB7DEB7D82E8B017A01BF
:1019F00060E08091E4030E94AD1C8D2D0E947F0B5E
:101A0000CE0101966C015E0195E0A90EB11C80E04B
:101A10000E947F0BF60181936F01EA15FB05B9F770
:101A20002A813981822F90E065E0959587956A95A6
:101A3000E1F7F8E03F9F800D911D1124092E000C65
:101A4000AA0BBB0B8093EB029093EC02A093ED02E8
:101A5000B093EE02F801108223FF50C08091EB0298
:101A60009091EC02A091ED02B091EE0232E0880F6D
:101A7000991FAA1FBB1F3A95D1F72370820F911DA2
:101A8000A11DB11D8093EB029093EC02A093ED0297
:101A9000B093EE028091EB029091EC02A091ED02E6
:101AA000B091EE02BA2FA92F982F88272B81820F91
:101AB000911DA11DB11D8093EB029093EC02A093A8
:101AC000ED02B093EE028091EB029091EC02A091B6
:101AD000ED02B091EE02BA2FA92F982F88272C8102
:101AE000820F911DA11DB11D8093EB029093EC021A
:101AF000A093ED02B093EE0281E0808380E00E942B
:101B00007F0B982F9F709093EA0286FB882780F9BD
:101B1000F701808382EEE82E82E0F82E10E08091BB
:101B2000EA02181750F4183041F080E00E947F0B51
:101B3000F70181937F011F5FF2CF61E08091E403A1
:101B40000F900F900F900F90DF91CF911F910F91F9
:101B5000FF90EF90DF90CF90BF90AF900C94AD1CB2
:101B6000DF92EF92FF920F931F93CF93DF93EC01DD
:101B7000E62EF12C85E0689FB0011124FE01E60FEE
:101B8000F71F8085182F177086FF17C001E085E0CA
:101B9000D82EFE01D09EE00DF11D11248085869582
:101BA0008695869587701817F9F00F5F003189F7D1
:101BB0008D81811302C011501D8385E08E9DF0013F
:101BC0008F9DF00D1124EC0FFD1F108681E08187A1
:101BD00012862296D783C683DF91CF911F910F91F2
:101BE000FF90EF90DF900895602FCE010E94B00D1E
:101BF000D0CF8F929F92AF92BF92EF92FF920F93AE
:101C00001F93CF93DF93CDB7DEB7A1970FB6F894AC
:101C1000DEBF0FBECDBF7C01FA01CB0119A222307D
:101C200008F42AE08E010F5D1F4F822E912CA12C0B
:101C3000B12CBF01A50194010E942D29F901CA010F
:101C4000015011096A3014F4605D01C0695CD8016B
:101C50006C93232B242B252B61F7B801C7010E941D
:101C60006818A1960FB6F894DEBF0FBECDBFDF9106
:101C7000CF911F910F91FF90EF90BF90AF909F90E9
:101C80008F9008950F931F93CF93DF93082F162FF4
:101C900080E591E00E94860BCEEDD3E060E08E817E
:101CA0000E94AD1C82E00E947F0B802F0E947F0B60
:101CB000812F0E947F0B61E08E810E94AD1CDF911D
:101CC000CF911F910F910C947E0BCF93C82F482F6B
:101CD00060EE8FE00E946C1E8FE00E94491E982FDC
:101CE000907E81E09C1301C080E0CF9108950F9316
:101CF0001F93CF93DF938C01C0E0D0E0F801EC0F8D
:101D0000FD1F6491662341F088EF92E00E94231B3F
:101D1000892B11F02196F2CFCE01DF91CF911F9147
:101D20000F910895EF920F931F93CF93DF93D801F4
:101D3000FC01EE50FF4F53E05083EC01CD50DF4FDC
:101D40004883219648E0488321961882E90148811A
:101D5000EC01CA50DF4F4883E9012981EC01C950E9
:101D6000DF4F28832C912196288311962C91DC013A
:101D7000A750BF4F2C931196EC9211961C9211967E
:101D80001C9211961C92E12C01E02CE0AF010E9404
:101D90006E21DF91CF911F910F91EF900895AF9237
:101DA000BF92CF92DF92EF92FF920F931F93CF9348
:101DB000DF93EC015B01142F0E94341DCFA0D8A447
:101DC000E9A4FAA4DC01CB018C199D09AE09BF0975
:101DD00087399105A105B1058CF40E94341D26E9CF
:101DE000C20ED11CE11CF11CA7019601261B370B6A
:101DF000480B590BCA01B9010E94FA1CDE01A0531D
:101E0000BF4FFE01E153FF4F6E817F81EC90008157
:101E1000212FA5018C819D810E946E210E94341D7D
:101E20006FA378A789A79AA7DF91CF911F910F91F0
:101E3000FF90EF90DF90CF90BF90AF900895AF925A
:101E4000BF92CF92DF92EF92FF920F93CF93DF93E7
:101E5000EC015B010E94341DCFA0D8A4E9A4FAA430
:101E6000DC01CB018C199D09AE09BF0987399105A9
:101E7000A105B1058CF40E94341D26E9C20ED11CC7
:101E8000E11CF11CA7019601261B370B480B590BCF
:101E9000CA01B9010E94FA1CDE01AC52BF4FFE011B
:101EA000ED52FF4F6E817F81EC90008122E3A5010E
:101EB0008C819D810E946E210E94341D6FA378A7A2
:101EC00089A79AA7DF91CF910F91FF90EF90DF90B4
:101ED000CF90BF90AF9008950F931F93CF93DF9350
:101EE000EC010E9468188C0164EB71E0CE010E9445
:101EF0006818800F911FDF91CF911F910F91089566
:101F00000C9468186F927F928F929F92AF92BF92BB
:101F1000CF92DF92EF92FF920F931F93CF93DF93B5
:101F2000EC01B62EA42E79010E941A1C6C010097B8
:101F300009F44DC0DC01ED91FC911197309709F443
:101F400048C013969C9180E0981731F02081A2162A
:101F500029F033968F5FF8CFE0E0F0E0D701ED9302
:101F6000FC933097C1F182818695869590E080310F
:101F7000910514F08FE090E041E050E060E070E007
:101F80003A014B0104C0660C771C881C991C8A9589
:101F9000D2F7D401C3010197D8018D939C936B2D87
:101FA00080EE0E94DF1D88ED0E948A1DF60194815B
:101FB000992331F0CA58DF4F68816260682B02C0F4
:101FC000682F697F88ED0E94DF1D80E005C086EDE7
:101FD00003C087ED01C08BEDDF91CF911F910F9171
:101FE000FF90EF90DF90CF90BF90AF909F908F9039
:101FF0007F906F9008952F923F924F925F926F92D1
:102000007F928F929F92AF92BF92CF92DF92EF9288
:10201000FF920F931F93CF93DF93CDB7DEB76097F7
:102020000FB6F894DEBF0FBECDBF3C01F42ED22E0A
:10203000302E4DA05EA0188A1F861E861D868E013A
:10204000035F1F4F9E01215F3F4F0E94820F81114E
:1020500098C0D9823A82EB82CC821E821D82B886D9
:10206000AF82AE014F5F5F4F68E080E20E94BA1D11
:102070002D853E854F2D60E1C3010E947D18E82E1D
:1020800081117BC08D2D8078382E4114510409F4C4
:1020900065C0EF85F8898281332009F450C08260E1
:1020A0008283650122242394C114D10409F45BC006
:1020B0009C868B864D855E856F857889E12C8201B3
:1020C0009E01255F3F4FC3010E94D319E82E96E081
:1020D000891312C00F85188988EF0E948A1D85FB1D
:1020E000882780F98225D80112969C91129780FB4F
:1020F00091F912969C93D8CF81113FC0EFA1F8A51A
:102100003097A1F00190F081E02D0190F081E02D59
:10211000C5018C199D099A8789876B857C859E01ED
:10212000275F3F4FA2018FA198A509958B859C85BC
:10213000C81AD90A8815990508F0B6CF0FC0816072
:1021400082834D855E8582019401BF01C3010E9497
:10215000E018811116C02D853E8511C02D853E8564
:10216000311005C00CC0E11008C02D853E8560EA25
:102170004F2DC3010E947D1804C08E2D02C060E85F
:10218000F7CF60960FB6F894DEBF0FBECDBFDF91DC
:10219000CF911F910F91FF90EF90DF90CF90BF9064
:1021A000AF909F908F907F906F905F904F903F90F7
:1021B0002F9008958F929F92AF92BF92CF92EF92FD
:1021C0000F93CF931F921F921F921F92812C912CDD
:1021D000A12CB12CC12CE42E05E020E040E00E94AF
:1021E000FB0FC82F6CE271E080E090E00E94FA1CC7
:1021F0000F900F900F900F908C2FCF910F91EF9029
:10220000CF90BF90AF909F908F9008958F929F92A4
:10221000AF92BF92CF92EF920F93CF93DF93FC01D7
:10222000E159FF4F208131812E7F31832083DC01F2
:10223000AC5BBF4FBC97EC01CF5BDF4F1F921F928F
:102240007F936F934A015A01C12CE12C00E020E2F8
:102250004C916081888199810E94FB0F0F900F90B3
:102260000F900F90DF91CF910F91EF90CF90BF9093
:10227000AF909F908F900895FC01DC01A159BF4F52
:102280008D919C9111978D7F9E7F8D939C93BF0123
:102290006E587F4F85E0DB018C93119684E08C9320
:1022A00011968DE08C93119684898C931196858973
:1022B0008C93119686898C93119687898C931196AD
:1022C000808D8C931196818D8C93119688E18C93DF
:1022D00011968CEC8C93119681E08C9311961C9244
:1022E00011961C9211961C9211961C9240E150E09E
:1022F000CF010C940611CF93DF93FC01BC016E5803
:102300007F4F8DE0DB018C93119684E08C931196C6
:1023100087E18C93119684898C93119685898C938F
:10232000119686898C93119687898C931196808D4E
:102330008C931196818D8C9323ADCF0185589F4F3F
:10234000222361F126E0EC01288356978C918823A3
:1023500099F0A855B109CF0142962D91ED01C159CF
:10236000DF4F2883A817B907C1F7DF01AE57BF4F6A
:10237000CF0184579F4F0DC0DF015496CF014A967D
:102380002D91ED01C959DF4F2883A817B907C1F76F
:10239000ECCF1D928A179B07E1F731C0A285B38568
:1023A000ED0109900020E9F72197AE014A1B5B0B74
:1023B000EC01488380E0282F30E0ED0109900020F7
:1023C000E9F72197CA1BDB0B2C173D0770F4EF01CF
:1023D000C20FD31FAE0144585F4F2A0F3B1FE901C4
:1023E0009881EA0198838F5FE6CF803140F4DF0166
:1023F000A80FB11DA458BF4F1C928F5FF6CF4AE1C2
:1024000050E0CF01DF91CF910C9406118F929F92F3
:10241000AF92BF92CF92EF920F931F921F921F9293
:102420001F92812C912CA12CB12CC12CE22E09E001
:1024300020E00E94FB0F0F900F900F900F900F91D4
:10244000EF90CF90BF90AF909F908F9008953F9264
:102450004F925F926F927F928F929F92AF92BF92B4
:10246000CF92DF92EF92FF920F931F93CF93DF9360
:10247000CDB7DEB7C054D1090FB6F894DEBF0FBE9A
:10248000CDBF3C01162FD22E332E1F921F92CE01AC
:1024900001962C019F938F9399E0892E912C29E02E
:1024A000A22EB12C32E0C32EE42E06E020E840E05C
:1024B000C3010E94FB0F0F900F900F900F9081119E
:1024C00013C0AB80BC803F92DF925F924F9280E45A
:1024D000882E912C20E840E0612FC3010E94FB0F61
:1024E0000F900F900F900F90C05CDF4F0FB6F894D5
:1024F000DEBF0FBECDBFDF91CF911F910F91FF9037
:10250000EF90DF90CF90BF90AF909F908F907F9093
:102510006F905F904F903F9008958F929F92AF92EF
:10252000BF92CF92DF92EF920F931F93CF93DF93DF
:1025300000D000D0CDB7DEB76C01590148011C8234
:102540001B821A8219828E010F5F1F4F9E012D5F21
:102550003F4F0E94820F811109C049815A816B81CE
:102560007C8184019501C6010E94D3190F900F90C0
:102570000F900F90DF91CF911F910F91EF90DF900F
:10258000CF90BF90AF909F908F900895CF92DF92A1
:10259000FF920F931F93CF93DF93F62ED0E0082F77
:1025A00010E0000F111F0B5E1A4F6801D8018D91CA
:1025B0009C91DC01ED91FC910280F381E02D2F2DA7
:1025C00040E060E00995803E59F461E088EE0E94A9
:1025D000DF1D66E670E080E090E00E94FA1C07C014
:1025E0008D3019F4D33058F514C081112BC0F60189
:1025F00080819181DC01ED91FC910190F081E02DD1
:102600002F2D40E060E00995C82F8D3051F4D33074
:1026100050F464E670E080E090E00E94FA1CDF5F16
:10262000C5CF882371F061E088EE0E94DF1D66E669
:1026300070E080E090E00E94FA1C8C2F03C08DE0D7
:1026400001C080E0DF91CF911F910F91FF90DF904B
:10265000CF90089588EF0E948A1D807C8034A1F07D
:1026600018F4882301F10895803819F0803CB9F0FE
:10267000089588ED0E948A1D81FD0BC069EC88EDEC
:102680000E94DF1D82E00CC088ED0E948A1D81FD42
:10269000F5CF6BEC88ED0E94DF1D83E001C081E087
:1026A0008093E102089561ED88ED0E94DF1D109294
:1026B000E1020895CF93DF93DC011D961C921D97D4
:1026C0001E961C921E971F961C921F9751961C9245
:1026D000519718961D921D921D921C921B9752960F
:1026E0001C925297EBE4F1E0EC01C359DF4FA35683
:1026F000BF4F849189933196CA17DB07D1F7DF91D9
:10270000CF910895DC011296ED91FC9113973097CB
:1027100009F00994FC012685222369F0E056FF4F59
:102720002FEF20833196108231961082BC016356C0
:102730007F4F0C941F0FECE7F1E0E491DC01AA5805
:10274000BF4FEF70EE0F2C91E22BEC93BC0165595B
:102750007F4F42E30C94CF0ECF92DF92EF92FF9225
:102760000F931F93CF93DF9300D000D000D0CDB74D
:10277000DEB78C01DC0152968C91813109F443C0A3
:10278000823121F0813009F0B2C08AC00E94341D2C
:10279000F801C3A0D4A0E5A0F6A0DC01CB018C1900
:1027A0009D09AE09BF09893E9340A105B1050CF40E
:1027B0009EC0F801BB9680E4DF011D928A95E9F77F
:1027C0008FE7F80182AF83AF84AF85AF83E589835C
:1027D00084EF8A8382E48B8383E08C831D821E8254
:1027E00046E0BE016F5F7F4FC8010E94CF0E81E1BE
:1027F000D80152968C930E94341DF80163A374A3F0
:1028000085A396A374C00E94341DD8019396CD90E1
:10281000DD90ED90FC909697DC01CB018C199D0921
:10282000AE09BF09893E9340A105B1050CF45FC014
:10283000D80150968C915097803521F481E01D96F7
:102840008C9314C08E3421F481E0F80187870EC088
:102850008D3461F40E94341DD80193966D937D935D
:102860008D939C93969781E01E968C93F801178A1E
:10287000108E118E128E138E148E158E168E178E4C
:1028800010A211A212A20190F081E02D0084F18526
:10289000E02DC801099581E0D80152968C9327C09C
:1028A000F8018685882319F10E94341DD80193967A
:1028B000CD90DD90ED90FC909697DC01CB018C19CA
:1028C0009D09AE09BF09813A9F40A105B1057CF081
:1028D000B80163567F4FC8010E941F0F0E94341D2C
:1028E000D80193966D937D938D939C93969726969E
:1028F0000FB6F894DEBF0FBECDBFDF91CF911F9111
:102900000F91FF90EF90DF90CF900895EF920F938B
:10291000CF93DF93EC012C852F5F2C876E817F8115
:102920008C819D81AC014E505F4F36E0FA013083BF
:1029300031962083319624E0208331961082FE0167
:10294000ED52FF4F2081FC01EA50FF4F2083FE0132
:10295000EC52FF4F2081FC01E950FF4F2083FE0124
:10296000EB52FF4F2081FC01E850FF4F2083FE0116
:10297000EA52FF4F2081FC01E750FF4F2083E12CFA
:1029800001E028E00E946E21E881F9810480F58150
:10299000E02DCE01099589E08A8BDF91CF910F91CF
:1029A000EF900895AF92BF92CF92DF92EF92FF9295
:1029B0000F931F93CF93DF93EC01FB018C819D81DB
:1029C000DC0115962C911597211132C02D8521110E
:1029D0002FC02E8521112CC02F85211129C02989B6
:1029E000211126C0D9962C91D997211121C0DA96B0
:1029F0002C91DA9721111CC0DB962C91DB972111C9
:102A000017C020852230A1F4248535852131310578
:102A100079F421E015962C931597298B52962D91D8
:102A20003C9153973F832E831A8A5A962C91288B78
:102A30006E817F81208130E0AB0155272417350757
:102A400009F03BC3418150E0272F33272062421712
:102A5000530709F032C36E01BBE2CB0ED11C20E458
:102A6000D60101900D922A95E1F759A94AA929A901
:102A70003AA92130310509F080C12BA9213009F490
:102A8000CCC1223061F58FA998AD8131910581F4D7
:102A90008CA98C8789ADFE01E153FF4F80838AADFD
:102AA0003196808388859985AA85BB85816012C00F
:102AB000439709F0B2C18CA98C8789ADFE01ED5214
:102AC000FF4F80838AAD3196808388859985AA855A
:102AD000BB85806188879987AA87BB879EC125307F
:102AE00041F58BAD9CAD892B09F097C18FA9FE01F3
:102AF000EF52FF4F908189130BC028AD3196908122
:102B0000291306C088859985AA85BB858260E2CF96
:102B1000FE01EB52FF4F908189137FC198AD319632
:102B2000808198137AC188859985AA85BB85806242
:102B3000D1CF243009F06AC02FA9FE01EF52FF4F18
:102B4000308123131FC048AD3196308143131AC022
:102B50002CA9AC014E505F4F35E0FA01308331961D
:102B6000208331962AE0208331961082FE01E153C2
:102B7000FF4F2081FC01EA50FF4F2083FE01E0530C
:102B8000FF4F26C0FE01EB52FF4F3081231345C19A
:102B900038AD31962081321340C12CA9AC014E5082
:102BA0005F4F35E0DA013C93FC01ED50FF4F20838D
:102BB00031962AE0208331961082FE01ED52FF4FBC
:102BC0002081FC01EA50FF4F2083FE01EC52FF4FB1
:102BD0002081FC01E950FF4F20833196108231960D
:102BE00010823196108231961082319621E0208336
:102BF000319622E02083319630EA3083319620836B
:102C0000E12C01E02EE00E946E2107C1263009F080
:102C10008AC02FA9DE01AF52BF4F3C91231336C0AB
:102C20007E01E2EDEE0EF11C48ADF7013081431359
:102C30002DC02CA92C87AC014E505F4F37E0FA0114
:102C400030835C01F3EFAF0EB11CF50120839C01D2
:102C50002C503F4F14E0F90110832F5F3F4FF901D3
:102C600010822C91DC01AA50BF4F2C93D7012C91DC
:102C700032962083FE01E153FF4F2081FC01E85092
:102C8000FF4F2083FE01E053FF4F3BC0DE01AB52FC
:102C9000BF4F3C912313C1C07E01E6EDEE0EF11C47
:102CA00038ADF70120813213B8C02CA92C87AC01B4
:102CB0004E505F4F37E0FA0130835C01F3EFAF0E07
:102CC000B11CF50120839C012C503F4F14E0F90109
:102CD00010832F5F3F4FF90110822C91DC01AA5025
:102CE000BF4F2C93D7012C9132962083FE01ED52D9
:102CF000FF4F2081FC01E850FF4F2083FE01EC5282
:102D0000FF4F2081FC01E750FF4F2083E12C01E0C1
:102D100028E00E946E21E881F9810480F581E02D90
:102D2000CE0109957AC0273009F077C08FA9FE013E
:102D3000E153FF4F908189130DC028AD31969081EA
:102D4000291308C08CA98C8788859985AA85BB859D
:102D50008860C0CEFE01ED52FF4F908189135DC0A7
:102D600098AD31968081981358C08CA98C8788853E
:102D70009985AA85BB858068ADCEFE01EB52FF4FD9
:102D8000808158134AC031968081481346C08D8592
:102D9000811106C08E85811103C08F858823E9F1DA
:102DA0008BA9813AD1F50E94341D6B8B7C8B8D8B66
:102DB0009E8B8D85811103C08F85882321F028ADDE
:102DC0008EA99FA906C08E85882351F02FA98DA9B1
:102DD0009EA9A0E0B0E0A22B8F8B988FA98FBA8F0D
:102DE0004F89588D698D7A8D8B8D9C8DAD8DBE8D63
:102DF000481759076A077B0781F080959095A09541
:102E0000B09584239523A623B7238F8F98A3A9A3D6
:102E1000BAA34B8F5C8F6D8F7E8F8A89853009F4C2
:102E20001CC130F4882371F0843009F457C045C1C7
:102E3000883009F4BDC0893009F4D0C0863009F06B
:102E40003CC151C0888580FF38C16E01BFECCB0EFC
:102E5000D11C5E01E1EDAE0EB11C6E817F81EE24CE
:102E6000E394860195014C858C819D810E94920E90
:102E700061E070E080E090E00E94FA1C6E817F814A
:102E8000E12C95014C858C819D810E94920E8C8550
:102E90008F5F8C8761E070E080E090E00E94FA1C18
:102EA0002C856E817F818C819D81AC014E505F4F5E
:102EB00014E0DA011C93FC01ED50FF4F20833196A2
:102EC00028E0208331961082F6012081FC01EA502F
:102ED000FF4F2083FE01E053FF4F50C0888581FFE4
:102EE000ECC086E0B8C0888584FFE7C06E01F3EDD2
:102EF000CF0ED11C5E0125EDA20EB11C6E817F812B
:102F0000EE24E394860195014C858C819D810E947D
:102F1000920E61E070E080E090E00E94FA1C6E8109
:102F20007F81E12C95014C858C819D810E94920EC0
:102F30008C858F5F8C8761E070E080E090E00E947C
:102F4000FA1C2C856E817F818C819D81AC014E5055
:102F50005F4F34E0DA013C93FC01ED50FF4F2083DA
:102F6000319618E0108331961082F6012081FC0121
:102F7000EA50FF4F2083FE01EC52FF4F2081FC01FD
:102F8000E950FF4F2083319610823196108231969E
:102F900021E02083319622E0208331962FEF208399
:102FA0003196208301E02CE00E946E211A8B85C0AF
:102FB000888585FF82C088898D3439F480E4D60104
:102FC0001D928A95E9F781E101C082E18A8B0E9416
:102FD000341D6BA37CA38DA39EA36FC0888587FF40
:102FE0006CC02C852F5F2C876E817F818C819D81A9
:102FF000AC014E505F4F36E0FA01308331962083AA
:10300000319624E0208331961082FE01E153FF4F78
:103010002081FC01EA50FF4F2083FE01E053FF4F67
:103020002081FC01E950FF4F2083FE01EF52FF4F4A
:103030002081FC01E850FF4F2083FE01EE52FF4F3C
:103040002081FC01E750FF4F2083E12C01E028E0C4
:103050000E946E2185E08A8B30C0888583FF2DC059
:103060003E812F818C819D81FC01E159FF4F408180
:1030700051814B7F51834083BC016E587F4F46E0A6
:10308000DB014C93349644E04083319643E0408327
:103090003196308331962F702083319623E120833F
:1030A00046E050E00E9406118FEF9FEF9F838E83D2
:1030B000188619861A861B861A8ADF91CF911F916E
:1030C0000F91FF90EF90DF90CF90BF90AF90089559
:1030D0006115710579F0FB0101900020E9F7319746
:1030E000AF01461B570BDC01ED91FC910280F3818F
:1030F000E02D099480E090E008958F929F92AF9226
:10310000BF92CF92DF92EF92FF920F931F93CF93D4
:10311000DF93862E942E59010E94341D6B017C0191
:1031200028E8C20E23E1D21EE11CF11C00E010E0F1
:10313000D0E0C0E098280E94341DDC01CB018C193E
:103140009D09AE09BF09B7FF2DC0692D80EF0E9410
:10315000DF1D0E94341DDC01CB018C199D09AE09D5
:10316000BF09B7FF09C088EC0E948A1D87FFF1CF15
:1031700060E888EC0E94DF1D88EF0E948A1DC82F3E
:10318000CF70C43019F0CE3051F00CC00F5F1F4F1C
:10319000A114B10481F20A151B0569F603C0DF5FB3
:1031A000D33049F68C2FDF91CF911F910F91FF9073
:1031B000EF90DF90CF90BF90AF909F908F90089549
:1031C0002F923F924F925F926F927F928F929F9237
:1031D000AF92BF92CF92DF92EF92FF920F931F9325
:1031E000CF93DF9300D000D01F92CDB7DEB77D83A1
:1031F0006C834A016901FB01F1808FEF8F0D8034F0
:1032000008F074C00E94341D2B013C01F8E84F0EF9
:10321000F3E15F1E611C711CEC81FD81828180FDE8
:1032200002C060E401C060E888EE0E94DF1D312C1E
:103230008F2D90E09A838983C114D10409F448C08A
:10324000E980FA80CE14DF0408F47601EB82A8014D
:103250006E2D80E10E94BA1D6E2D88E30E94DF1D55
:10326000EC81FD816081606280EF0E94DF1D88EC4F
:103270000E948A1D87FFFBCF60E888EC0E94DF1D5B
:1032800088EF0E948A1D8F70382EA12CB12C212C22
:10329000332009F46BC00E94341DDC01CB0184197A
:1032A0009509A609B709B7FF61C0F6E03F1601F11D
:1032B0002EE0321609F455C084E0381209C0FFEF41
:1032C000AF1ABF0A8114910449F1A814B90431F569
:1032D00088EF0E948A1D85FB882780F9EC81FD819B
:1032E000928180FB90F99283832D45C08AED43C083
:1032F00088EF0E948A1D85FB882780F991E0892745
:10330000EC81FD81928180FB90F9928390FD02C057
:1033100060E401C060E888EE0E94DF1D60E088E3A1
:103320000E94DF1DF801608180E10E94DF1D6B813A
:1033300088E30E94DF1DEC81FD816081606280EF87
:103340000E94DF1D88EC0E948A1D87FFFBCF60E88A
:1033500088EC0E94DF1D88EF0E948A1D8F70382E36
:1033600097CF239423E02212D9CFB2CFCE18DF0813
:103370000E0D1F1D61CF0F900F900F900F900F90AB
:10338000DF91CF911F910F91FF90EF90DF90CF9041
:10339000BF90AF909F908F907F906F905F904F9075
:1033A0003F902F9008952F923F924F925F926F928D
:1033B0007F928F929F92AF92BF92CF92DF92EF92C5
:1033C000FF920F931F93CF93DF93CDB7DEB729976B
:1033D0000FB6F894DEBF0FBECDBF1C016B015B833F
:1033E0004A835901D9016D907C901197FB01F181BD
:1033F000F9831D921C92DB0112968C9181FD02C013
:1034000060E101C060E288EE0E94DF1D8E2D90E039
:10341000A0E0B0E08C839D83AE83BF83462C2A81DD
:103420003B81D6014C9160E0C1010E947D18F82ECD
:10343000B6E08B1315C088EF0E948A1D82958170BB
:1034400091E08927F601928180FB91F9928391FDA9
:1034500002C060E101C060E288EE0E94DF1DDFCFA4
:1034600081116EC088EC0E948A1D82FF67C080E3D4
:103470000E948A1D582E90E06816790608F4542C94
:10348000D5018D919C91F301E81BF90BF987E88731
:10349000F7FF02C019861886852C912C288539855E
:1034A0008216930614F49986888680E591E00E943E
:1034B000860B0E947A0B88E00E947F0B4885598515
:1034C00060E070E0C8010E945A29888599850097BC
:1034D00021F0BC01C8010E94A01DA885B9850A0F72
:1034E0001B1F0E947C0B0E947E0B64E088EC0E94F4
:1034F000DF1DF50180819181880E991E9182808265
:10350000F9815F1618F08614970470F088EF0E9416
:103510008A1D82958170D60112969C91129780FB2C
:1035200091F912969C930CC0EE2009F478CF6C812F
:103530007D818E819F810E94FA1C71CF80EFF82ED1
:103540008F2D29960FB6F894DEBF0FBECDBFDF9149
:10355000CF911F910F91FF90EF90DF90CF90BF9090
:10356000AF909F908F907F906F905F904F903F9023
:103570002F900895FC01538D448D252F30E0842F2A
:1035800090E0821B930B541710F0CF96089501978B
:103590000895FC01918D828D981761F0828DDF0175
:1035A000A80FB11D5D968C91928D9F5F9F73928F36
:1035B00090E008958FEF9FEF0895FC01918D828D2B
:1035C000981731F0828DE80FF11D858D90E00895F8
:1035D0008FEF9FEF0895FC01918D228D892F90E050
:1035E000805C9F4F821B91098F739927089588EF04
:1035F00092E00E94EB1A21E0892B09F420E0822F4F
:103600000895FC01848DDF01A80FB11DA35ABF4F9F
:103610002C91848D90E001968F739927848FA689D1
:10362000B7892C93A089B1898C91837080648C9325
:10363000938D848D981306C00288F389E02D8081D4
:103640008F7D80830895EF92FF920F931F93CF9306
:10365000DF93EC0181E0888F9B8D8C8D981305C0E2
:10366000E889F989808185FD26C0F62E0B8D10E052
:103670000F5F1F4F0F731127E02E8C8DE8120CC0C7
:103680000FB607FCFACFE889F989808185FFF5CF6D
:10369000CE010E94011BF1CF8B8DFE01E80FF11DC1
:1036A000E35AFF4FF0829FB7F8940B8FEA89FB89AA
:1036B000808180620AC09FB7F894EE89FF89608399
:1036C000E889F98980818370806480839FBF81E06D
:1036D00090E0DF91CF911F910F91FF90EF900895AF
:1036E000CF93DF93EC01888D8823C9F0EA89FB89A9
:1036F000808185FD05C0A889B9898C9186FD0FC0A0
:103700000FB607FCF5CF808185FFF2CFA889B98974
:103710008C9185FFEDCFCE010E94011BE7CFDF9199
:10372000CF91089580E090E0892B29F00E94F71A4C
:1037300081110C94000008953FB7F8948091F40231
:103740009091F502A091F602B091F70226B5A89BE0
:1037500005C02F3F19F00196A11DB11D3FBFBA2F23
:10376000A92F982F8827820F911DA11DB11DBC0183
:10377000CD0142E0660F771F881F991F4A95D1F748
:103780000895CF93DF93FC01862F8078A9F4283029
:1037900008F04DC0442321F09581973009F447C0CB
:1037A000EF01A1E0B0E09D85992341F011962596A7
:1037B000A031B105C1F73BC080E039C061111CC028
:1037C00085E08A9FE0018B9FD00D1124CE0FDF1F73
:1037D000442331F081E4888785818F5F858302C02F
:1037E00081E0888725E02A9FC0012B9F900D11243E
:1037F000E80FF91F80851BC06770660F660F660FA4
:10380000442341F0606485818F5F85838770687F82
:10381000682B03C02770687B622B25E02A9FC001BC
:103820002B9F900D1124E80FF91F6087862FDF91E1
:10383000CF910895611102C006960895FC0121E020
:103840003585631739F02F5F35962031C9F780E051
:1038500090E00895069635E0239F800D911D112478
:1038600008950E945529FC01613499F49C01255B5F
:103870003F4F61E0AC014E5F5F4F1586668717864C
:10388000548743873596E217F307B9F7FC01158291
:10389000089521E03585631729F02F5F3596203193
:1038A000C9F70895622F0C94B00D1F920F920FB6B6
:1038B0000F9211242F933F934F935F936F937F93B6
:1038C0008F939F93AF93BF93EF93FF9388EF92E013
:1038D0000E94011BFF91EF91BF91AF919F918F913A
:1038E0007F916F915F914F913F912F910F900FBEFC
:1038F0000F901F9018951F920F920FB60F921124E0
:103900002F938F939F93EF93FF93E0910803F09190
:1039100009038081E0910E03F0910F0382FD12C034
:103920009081809111038F5F8F7320911203821712
:1039300051F0E0911103F0E0E850FD4F958F809336
:10394000110301C08081FF91EF919F918F912F9181
:103950000F900FBE0F901F90189590E0FC01EA5752
:10396000FE4F2491FC01EE53FE4F3491FC01E255D1
:10397000FE4FE491EE2309F43CC0222339F12330B9
:1039800091F038F42130A9F0223001F584B58F7D13
:1039900012C0273091F02830A1F02430B9F4809182
:1039A00080008F7D03C0809180008F77809380009E
:1039B0000DC084B58F7784BD09C08091B0008F772A
:1039C00003C08091B0008F7D8093B000F0E0EE0FD7
:1039D000FF1FE656FE4FA591B4919FB7F894611171
:1039E00004C08C913095382302C0EC913E2B3C935F
:1039F0009FBF08958F929F92AF92BF92CF92DF9216
:103A0000EF92FF926B017C010E949C1B4B015C01B9
:103A1000C114D104E104F104F1F00E949C1BDC010B
:103A2000CB0188199909AA09BB09883E9340A105D1
:103A3000B10570F321E0C21AD108E108F10888EE5F
:103A4000880E83E0981EA11CB11CC114D104E104AE
:103A5000F10419F7DDCFFF90EF90DF90CF90BF908A
:103A6000AF909F908F9008952FB7F8946091F002D7
:103A70007091F1028091F2029091F3022FBF0895AC
:103A80001F920F920FB60F9211242F933F938F9393
:103A90009F93AF93BF938091F0029091F102A09118
:103AA000F202B091F3023091EF0223E0230F2D37A1
:103AB00020F40196A11DB11D05C026E8230F029632
:103AC000A11DB11D2093EF028093F0029093F102AB
:103AD000A093F202B093F3028091F4029091F50268
:103AE000A091F602B091F7020196A11DB11D80933D
:103AF000F4029093F502A093F602B093F702BF91FF
:103B0000AF919F918F913F912F910F900FBE0F908A
:103B10001F901895CF93C82F80E591E00E94860BE7
:103B20000E947A0B8C2F0E947F0B80E00E947F0BFB
:103B3000C82F0E947C0B0E947E0B8C2FCF91089582
:103B4000FC0120812EBD9B012150310941F05181A2
:103B50000DB407FEFDCF4EB55EBD4193F5CF61506C
:103B60007109FC01E60FF71F0DB407FEFDCF8EB5FE
:103B7000808308950F931F93CF93DF93C82FD62F81
:103B80008A0180E591E00E94860B0E947A0B8C2FBF
:103B900082600E947F0BCD2FD0E0209721F0BE01E4
:103BA000C8010E94A01DC00FD11F0E947C0B0E9463
:103BB0007E0BCE01DF91CF911F910F9108950F934E
:103BC0001F93CF93DF9300D0CDB7DEB7182F062F0A
:103BD00080E591E00E94860B0E947A0B12601983A7
:103BE0000A8362E070E0CE0101960E94A01D0E944F
:103BF0007C0B0E947E0B0F900F90DF91CF911F9155
:103C00000F91089590E0FC01EE53FE4F2491FC01CA
:103C1000E255FE4F8491882399F090E0880F991F18
:103C2000FC01EC55FE4FA591B491FC01E656FE4F08
:103C3000859194918FB7F894EC91E22BEC938FBF20
:103C40000895E8EFF2E0A089B18982E08C93A48521
:103C5000B5851C92A685B78580E18C93108EA489CA
:103C6000B58986E08C93A289B3898C9180618C930D
:103C7000A289B3898C9188608C93A289B3898C9135
:103C800080688C930288F389E02D80818F7D80830A
:103C900008951F93CF93DF93182F80E591E00E9442
:103CA000860BCEEDD3E060E08E810E94AD1C83E0F8
:103CB0000E947F0B812F0E947F0B80E00E947F0B70
:103CC000182F61E08E810E94AD1C0E947E0B812F17
:103CD000DF91CF911F910895FF920F931F93CF9380
:103CE000DF93F82E062F142F80E591E00E94860BBB
:103CF000CEEDD3E060E08E810E94AD1C85E00E9495
:103D00007F0B8F2D0E947F0B802F0E947F0B812FB6
:103D10000E947F0B61E08E810E94AD1CDF91CF91EC
:103D20001F910F91FF900C947E0B1F93CF93DF9305
:103D300080E591E00E94860BCEEDD3E060E08E81BD
:103D40000E94AD1C80EA0E947F0B80E00E947F0BE6
:103D5000182F61E08E810E94AD1C0E947E0B812F86
:103D6000DF91CF911F910895CF93DF93FC01EB0179
:103D700080819181892B21F18281882319F1DA01D7
:103D80002D913C91232BE1F0A881B9819C91A381D5
:103D9000B0E0A81BB10920813181A20FB31F9C9311
:103DA000828181508283DA018D919C9111970197D4
:103DB0008D939C9388819981019699838883DCCF28
:103DC00080E003C08381828381E0DF91CF910895F9
:103DD00080E090E008952F923F924F925F926F9211
:103DE0007F928F929F92AF92BF92CF92DF92EF928B
:103DF000FF920F931F93CF93DF9300D000D0CDB7E6
:103E0000DEB76C017A8369835C834B834C0180E16C
:103E1000880E911C5601A7E0AA0EB11C33243394DE
:103E20002601BBE04B0E511C3601E2E16E0E711C07
:103E300083E0282E12E089819A81892B09F4D7C06A
:103E4000D60190968C91823061F128F4882341F05C
:103E5000813079F0F0CF833041F18430D1F1EBCF74
:103E6000F601148385819681908787831287118755
:103E700030A2AE014F5F5F4FBE016D5F7F4FC50146
:103E80000E94B41E882309F4B2C0D6011596ED91A4
:103E9000FC911697808191968C939197818192964F
:103EA0008C93F6017682658220A2D60192968C913F
:103EB0009297843011F493961C92F60181A182505E
:103EC000848325813681308727838287818784E0B8
:103ED00080A3D60192968C918430B1F0853009F49C
:103EE00042C0823009F06BC0AE014F5F5F4FBE0130
:103EF0006D5F7F4FC5010E94B41E882309F477C00F
:103F0000F601858984A36BC0AE014F5F5F4FBE0190
:103F10006D5F7F4FC5010E94B41E882309F467C0FE
:103F2000D60155968C9155978F3F09F058C05696FB
:103F30008C915697813009F052C098969C91989731
:103F400057968C91992321F0882309F448C003C027
:103F5000813009F044C0F60133A2928996A3938977
:103F600097A385A33CC0AE014F5F5F4FBE016D5F5D
:103F70007F4FC5010E94B41E8823C9F1D6019396D4
:103F80008C919397882359F112968D919C91139758
:103F9000009729F1DC01ED91FC910190F081E02D79
:103FA0007401D60195960C91959797962C919797B9
:103FB00096964C91969794966C91099510C0F6013F
:103FC00021A130E022503109AE014F5F5F4FBE01A9
:103FD0006D5F7F4FC2010E94150B882341F0D6010F
:103FE00016969C928E92159790961C9224CF0F90C5
:103FF0000F900F900F90DF91CF911F910F91FF9035
:10400000EF90DF90CF90BF90AF909F908F907F9078
:104010006F905F904F903F902F9008952F923F9216
:104020004F925F926F927F928F929F92AF92BF92C8
:10403000CF92DF92EF92FF920F931F93CF93DF9374
:1040400000D000D0CDB7DEB76C017A8369835C8382
:104050004B834C0180E1880E911C5601A7E0AA0E0B
:10406000B11C332433942601BBE04B0E511C3601A6
:10407000E2E16E0E711C83E0282E12E089819A81A4
:10408000892B09F4D7C0D60190968C91823061F1CA
:1040900028F4882341F0813079F0F0CF833041F16A
:1040A0008430D1F1EBCFF60114838581968190871E
:1040B00087831287118730A2AE014F5F5F4FBE0129
:1040C0006D5F7F4FC5010E94B41E882309F4B2C002
:1040D000D6011596ED91FC911697808191968C935F
:1040E0009197818192968C93F6017682658220A2C7
:1040F000D60192968C919297843011F493961C92EB
:10410000F60181A1825084832581368130872783FF
:104110008287818784E080A3D60192968C91843037
:10412000B1F0853009F442C0823009F06BC0AE01B5
:104130004F5F5F4FBE016D5F7F4FC5010E94B41E90
:10414000882309F477C0F601858984A36BC0AE018A
:104150004F5F5F4FBE016D5F7F4FC5010E94B41E70
:10416000882309F467C0D60155968C915597803EF7
:1041700009F058C056968C915697813009F052C07C
:1041800098969C91989757968C91992321F0882323
:1041900009F448C003C0813009F044C0F60133A2DD
:1041A000928996A3938997A385A33CC0AE014F5FE4
:1041B0005F4FBE016D5F7F4FC5010E94B41E882313
:1041C000C9F1D60193968C919397882359F1129651
:1041D0008D919C911397009729F1DC01ED91FC9151
:1041E0000190F081E02D7401D60195960C91959780
:1041F00097962C91979796964C91969794966C914A
:10420000099510C0F60121A130E022503109AE011C
:104210004F5F5F4FBE016D5F7F4FC2010E94150B64
:10422000882341F0D60116969C928E92159790960F
:104230001C9224CF0F900F900F900F90DF91CF9191
:104240001F910F91FF90EF90DF90CF90BF90AF90B4
:104250009F908F907F906F905F904F903F902F90A6
:1042600008950895FA01DC01A05BBF4F6C93238190
:104270002370233051F4228127FF2FC017972C91F0
:10428000237024602C9321E009C0223031F5228173
:10429000221F2227221F33E0321B232F30E0A901E7
:1042A000440F551F240F351F280F391FD901AC5B50
:1042B000BF4F42814F704C93119644814C9326819D
:1042C000FC01EE59FF4F3081321708F42083FC01C6
:1042D000EF5AFF4F80818F5F808308958F929F9266
:1042E000AF92BF92CF92DF92EF92FF920F931F9304
:1042F000CF93DF9300D000D0CDB7DEB7ADB6BEB65A
:10430000A22FB0E04D0138E0830E911CEDB7FEB74F
:10431000E819F9090FB6F894FEBF0FBEEDBF31964C
:104320006F01EDB7FEB761837F707062F601718334
:1043300034E0320F3283BD016C5F7F4F738324837F
:1043400015820683E7822DB73EB7275F3F4F7A017C
:10435000B701641B750B6A177B0738F4F70161918D
:104360007F01F90161939F01F3CFFC01E35BFF4FF4
:1043700040813A9760813297E080F1801C821B82F5
:104380001A8219828E010F5F1F4F9E012D5F3F4FD2
:10439000C7010E94820F811109C049815A816B8136
:1043A0007C8186019401C7010E94E018882331F0C6
:1043B00064E670E080E090E00E94FA1C0FB6F8948A
:1043C000BEBE0FBEADBE0F900F900F900F90DF914D
:1043D000CF911F910F91FF90EF90DF90CF90BF9002
:1043E000AF909F908F900895CF92DF92EF92FF92BF
:1043F0000F931F93CF93DF936C017A018B01C0E081
:10440000D0E0CE15DF0581F0D8016D918D01D60188
:10441000ED91FC910190F081E02DC6010995892B69
:1044200011F02196EECF7E01C701DF91CF911F9150
:104430000F91FF90EF90DF90CF900895CF93DF938F
:10444000CDB7DEB765970FB6F894DEBF0FBECDBF10
:10445000789484B5826084BD84B5816084BD85B55F
:10446000826085BD85B5816085BD80916E0081606B
:1044700080936E0010928100809181008260809311
:104480008100809181008160809381008091800013
:104490008160809380008091B10084608093B1003E
:1044A0008091B00081608093B00080917A00846038
:1044B00080937A0080917A00826080937A00809164
:1044C0007A00816080937A0080917A00806880937E
:1044D0007A001092C1001092D9031092DA03109260
:1044E000DB031092DC031092970310929803109252
:1044F000990310929A030E94341D4B015C012B0119
:104500003C0128EB420E2BE0521E611C711C0E94E4
:10451000341D681579058A059B0528F0461657064F
:1045200068067906A0F788EF92E09093D80380930D
:10453000D7030E94211E0E94341D6093970370933D
:1045400098038093990390939A036DE671E08091AC
:10455000D7039091D8030E94800F0E94341D4B0115
:104560005C012B013C018AE0480E511C611C711C4E
:104570000E94341D681579058A059B0528F04616AA
:10458000570668067906A0F781E08093AB030E9486
:10459000211E229A0E947C0B0E94470B229A0E94A5
:1045A0007C0B559868E188E80E94DF1D60E288E78F
:1045B0000E94DF1D60E088E70E94DF1D00E010E040
:1045C00088E60E948A1D0F5F1F4F80FD09C00F3FC4
:1045D0009FEF1907A9F788ED90E00E94770EFFCFB3
:1045E00061EC88ED0E94DF1D60E680ED0E94DF1D1A
:1045F00064E088EE0E94DF1D88EE0E948A1D82FF23
:10460000FBCF0E942A1360E288EC0E94DF1D61E06C
:1046100080E80E94DF1D88EB90E00E94770E0E94E8
:10462000470B80E591E00E94860B60E08091E403F7
:104630000E94AD1C80EC0E947F0B61E08091E4033E
:104640000E94AD1C0E947E0B6AE070E080E090E06A
:104650000E94FA1C80E80E94650E882319F06FE71B
:1046600071E047C069E971E088EF92E00E94800F35
:1046700060E08AE20E94420E60EF89E20E94420EF0
:1046800066E888E20E94420E67EB71E088EF92E0F4
:104690000E94800F10E360E0812F0E94420E60E0D4
:1046A00080E1810F0E94420E60E080E2810F0E9453
:1046B000420E1F5F1E3379F760E080E60E94420ED3
:1046C00060E080E70E94420E63E08BE20E94420EAF
:1046D00044E064E680E60E946C1E40E060E680E70D
:1046E0000E946C1E80E00E94650E8823C9F06CEC6D
:1046F00071E088EF92E00E94800F65E472E088EF3D
:1047000092E00E946C0F6EE572E088EF92E00E94EA
:104710006C0F64E670E080E090E00E94FA1C7FCFAE
:1047200067EE71E088EF92E00E94800F65E072E032
:1047300088EF92E00E946C0F68E0F62EDE01119681
:104740001D010E94341D672B682B692B41F40E94C8
:10475000341D623071058105910508F40DC10E9478
:10476000341D0091DC021091DD022091DE023091B7
:10477000DF02601771078207930740F46093DC0241
:104780007093DD028093DE029093DF020091DC02E1
:104790001091DD022091DE023091DF025B016C019D
:1047A000A01AB10AC20AD30A960185010A3F11056F
:1047B0002105310508F4E0C06093DC027093DD024E
:1047C0008093DE029093DF0284EF91E0A0E0B0E0FE
:1047D0008093A3039093A403A093A503B093A6038F
:1047E0001092A7031092A8031092A9031092AA0393
:1047F00080919B0390919C03A0919D03B0919E0397
:1048000080939F039093A003A093A103B093A2036E
:104810000E94341D60939B0370939C0380939D03BF
:1048200090939E030E94341D6093970370939803A6
:104830008093990390939A030E94341D4B015C016D
:104840006DE172E08091D7039091D8030E94800FB0
:104850002AE041E050E060E070E08091D703909161
:10486000D8030E94F90D64E272E08091D703909121
:10487000D8030E94800F2AE0B501A4018091D703DC
:104880009091D8030E94F90D66E272E08091D703FF
:104890009091D8030E94800F80919B0390919C037C
:1048A000A0919D03B0919E03B501A401481B590B33
:1048B0006A0B7B0B2AE08091D7039091D8030E946A
:1048C000F90D66E272E08091D7039091D8030E94BF
:1048D000800F40919B0350919C0360919D037091C8
:1048E0009E0380919F039091A003A091A103B0919A
:1048F000A203481B590B6A0B7B0B2AE08091D7035C
:104900009091D8030E94F90D68E272E08091D7037C
:104910009091D8030E94800F0E94341DAB01BC010E
:104920002AE08091D7039091D8030E94F90D6AE2A2
:1049300072E08091D7039091D8030E946C0F0E947F
:10494000341D4B015C012B013C0195E0490E511CCB
:10495000611C711C0E94341D681579058A059B0530
:1049600008F0D4C20E94341D60939B0370939C0393
:1049700080939D0390939E034D990DC088EC0E94F7
:104980008A1D85FF04C00E942A1360E201C060E016
:1049900088EC0E94DF1D8091E102813039F050F0F7
:1049A000823089F0833049F511E00EC0A3E1A09375
:1049B000DD0323C08091DD03807F8031F1F0B1E120
:1049C000B093DD031AC010E08091DD03807F803159
:1049D000A9F40E94341DDC01CB0188539F4FAF4FD7
:1049E000BF4F8093D8029093D902A093DA02B0937C
:1049F000DB0280E28093DD0301C010E055E1652E0B
:104A000055E0752E5301F501819191915F01009759
:104A100039F0DC01ED91FC910680F781E02D0995DC
:104A2000B5E3AB16B5E0BB0671F78091DD038034CA
:104A300009F444C050F4803231F18033C9F181313E
:104A400009F041C1109235050AC0813509F45FC0F3
:104A5000803809F471C0803509F035C140C0F301D8
:104A6000819191913F01009739F0DC01ED91FC912A
:104A70000480F581E02D0995B5E36B16B5E07B0662
:104A800071F782E11EC10E94341D0091D80210917D
:104A9000D9022091DA023091DB02DC01CB01801BCC
:104AA000910BA20BB30BB7FD0EC180E38093DD0326
:104AB00061E088EE0E94DF1D80E403C188EE0E9461
:104AC0008A1D80FD00C188ED0E948A1D682F6860E4
:104AD00088ED0E94DF1DE0E5E093DD03F4C088EC83
:104AE0000E948A1D86FFEFC081E58093DD030E944E
:104AF000341DDC01CB014496A11DB11D8093D80269
:104B00009093D902A093DA02B093DB02DCC00E943A
:104B1000341D8090D8029090D902A090DA02B09013
:104B2000DB02DC01CB0188199909AA09BB09B7FD91
:104B3000CAC080E88093DD031B8AFC8A8CE38D8BDE
:104B400045ECA42E44E0B42EAB2809F4B7C0409045
:104B5000C5045090C60493E1C92ED12CCC0EDD1EA5
:104B6000D092C604C092C5041093C9041F921F922C
:104B70003F922F9222E1822E912C32E1A32EB12C72
:104B8000CC24C394E12C06E020E840E060E08FEB09
:104B900094E00E94FB0F5092C6044092C5040F900F
:104BA0000F900F900F90811185C0C984DA848B8497
:104BB0009C845D804E8085E1A82E85E0B82E00E0C3
:104BC000D5018D919C910097B9F1DC01ED91FC919B
:104BD0000084F185E02D099581112EC0F5018081B9
:104BE0009181DC01ED91FC910088F189E02D642D2B
:104BF0000995882309F1F50180819181DC01ED910E
:104C0000FC910484F585E02DA401B601099581117C
:104C10000DC0F50180819181DC01ED91FC9106844C
:104C2000F785E02D652D0995882331F0612F802FC0
:104C30000E94C612813DF1F50F5F22E0A20EB11C69
:104C4000003109F0BDCF00E0F30180819181009730
:104C500009F063C10F5F82E0680E711C0031A1F79B
:104C60008091C5049091C604892B41F11093C90429
:104C700020E040E060E08FEB94E00E94C11B082F31
:104C80008823E1F0682F8FEB94E00E941A1C0097B4
:104C9000A9F0FC011483402F60E08FEB94E00E94A8
:104CA000DA10182F882361F0602F8FEB94E00E94B8
:104CB000331C812F882321F0823D29F080EA01C036
:104CC00080E98093DD03D101EF2D1D92EA95E9F78C
:104CD0000E94951E382F3B7A83FD02C020E001C060
:104CE00024E085FD02C090E001C098E0832F881F7A
:104CF0008827881F8295807F3370232B922B892BE6
:104D000080FF06C043EE53E06EED73E080E907C01C
:104D100081FF3EC143EE53E06EED73E084E90E94F3
:104D2000E70C8091EB029091EC02A091ED02B09122
:104D3000EE028093DF039093E003A093E103B0932E
:104D4000E2038091F503811105C08091F703882368
:104D500009F4D9C08091EB029091EC02A091ED0290
:104D6000B091EE028115F0ED9F07FFEFAF07BF078F
:104D700009F0BBC061E372E088EF92E00E946C0F23
:104D800083E090E00E94B00C882319F0898180684C
:104D9000898382E090E00E94B00C882319F0898119
:104DA0008064898381E090E00E94B00C882319F030
:104DB00089818062898380E090E00E94B00C882322
:104DC00019F089818061898385E090E00E94B00CB0
:104DD000882319F089818860898384E090E00E94AB
:104DE000B00C882319F089818160898387E090E085
:104DF0000E94B00C882319F089818460898386E041
:104E000090E00E94B00C882319F089818260898328
:104E10008FE090E00E94B00C882319F08A818068AE
:104E20008A838EE090E00E94B00C882319F08A817A
:104E300080648A838DE090E00E94B00C882319F092
:104E40008A8180628A838CE090E00E94B00C882383
:104E500019F08A8180618A838BE090E00E94B00C17
:104E6000882319F08A8188608A838AE090E00E9412
:104E7000B00C882319F08A8184608A83E5EFF0E022
:104E80008491E82FF0E0E851FC4F83A5853B18F0B2
:104E90008A8182608A83E4EFF0E08491E82FF0E079
:104EA000E851FC4F83A5853B18F08A8181608A8395
:104EB0008091240481118B838091230481118C8340
:104EC0009091220491119D8381118E83910148E07C
:104ED00061E070ED8FEF9FEF0E94890B6DE372E050
:104EE00088EF92E00E946C0F0EC08115904CAF4F7E
:104EF000BF4F49F420E030E040E061E070EC8FEF1C
:104F00009FEF0E94890B0E94921B1BCC46165706EE
:104F10006806790608F01ECD25CDDC01ED91FC91E7
:104F20000084F185E02D0995811194CEF3018081F3
:104F30009181DC01ED91FC910088F189E02D642DD7
:104F400009958823D9F0F30180819181DC01ED91ED
:104F5000FC910484F585E02DA401B6010995811129
:104F600079CEF30180819181DC01ED91FC91068481
:104F7000F785E02D652D099581116CCE612F802F6D
:104F80000E94C612982F977F913D09F093CE62CE72
:104F90001092EA02D6CEEF92FF92A701211105C02E
:104FA0000297FF90EF900C943221FF90EF900895BC
:104FB000EF92FF92A701211104C0FF90EF900C9493
:104FC0003221FF90EF9008951092FB021092FA02A6
:104FD00088EE93E0A0E0B0E08093FC029093FD02A5
:104FE000A093FE02B093FF0289E191E09093F90251
:104FF0008093F80285EC90E090930503809304037E
:1050000084EC90E0909307038093060380EC90E09B
:10501000909309038093080381EC90E090930B0335
:1050200080930A0382EC90E090930D0380930C032D
:1050300086EC90E090930F0380930E03109211037F
:1050400010921203109213031092140310929B03F8
:1050500010929C0310929D0310929E0310929F0346
:105060001092A0031092A1031092A2031092A30326
:105070001092A4031092A5031092A6031092A70306
:105080001092A8031092A9031092AA0387E691E058
:105090009093C0048093BF041092C4041092C7047C
:1050A00081E08093C8041092C90481EC94E090934D
:1050B000C6048093C5041092C10488E08093C204A2
:1050C0008CE38093C304EFEBF4E021E081EC94E007
:1050D00015862687178694878387359635E0EA30CC
:1050E000F307B1F71092350581E18093DD0387E482
:1050F00091E0909338058093370581E691E0909395
:105100003A0580933905109270051092720510923D
:105110007505109277058FEB94E090937905809355
:10512000780510927A0581E08093880510928905B0
:1051300010928A0510928B0510928C051092990599
:1051400010929A0510928E0510928D05109290057E
:1051500010928F051092920510929105109294056D
:105160001092930587E395E00E94B409E0917805D9
:10517000F09179053097B9F0DF01AA5ABF4F80E06E
:1051800090E02D913D91232B51F48B96880F991F20
:10519000E80FF91F87E395E09183808304C00196AF
:1051A0008031910571F787E395E09093ED0380934B
:1051B000EC03EDE8F5E080E090E021913191232BC4
:1051C00051F4880F991FFC01E357FA4F88EE93E0E2
:1051D0009183808304C001968430910571F789E33F
:1051E00091E09093E9038093E803109248051092B0
:1051F00047051092460510924505109244051092FD
:10520000430582E58093530481E08093540482EA4D
:105210008093850482E08093860480E48093B904BF
:105220001092BA0481E48093BD041092BE0488EE0B
:1052300093E00E945A131092E70386E395E090935F
:10524000E6038093E50389E08093E4030E94021E55
:1052500061E08091E4030C94AD1CA1E21A2EAA1B1C
:10526000BB1BFD010DC0AA1FBB1FEE1FFF1FA21716
:10527000B307E407F50720F0A21BB30BE40BF50B13
:10528000661F771F881F991F1A9469F7609570959C
:10529000809590959B01AC01BD01CF010895EE0F63
:1052A000FF1F0590F491E02D099481E090E0F894BF
:1052B0000C946F29DC0101C06D9341505040E0F720
:1052C0000895FB01DC014150504030F08D91019078
:1052D000801919F40020B9F7881B990B0895F894E8
:0252E000FFCFFE
:1052E20000000000EB1E000000000E200408103039
:1052F200405004104000000000231BF421BA1A7031
:105302001BEB1AC91ADD1A00000000311C311C31D6
:105312001C311C311C00000000D214AC135A13863D
:1053220014821300000000A6073C0A240A680157F1
:1053320001630116014D015D015201D827FEFF00F4
:1053420000CB27000000001A1CC11B331C564D4421
:1053520050565F317C315F564D4450560D0A004520
:105362006E7465722073657474696E67206D6F6404
:1053720065206661696C0D0A00456E746572207362
:10538200657474696E67206D6F64652073756363FD
:10539200657373200D0A0073657420726174652051
:1053A2007375636365737321210D0A00456E74651D
:1053B20072204E6F726D616C204D6F646520466184
:1053C200696C21210D0A00456E746572204E6F7260
:1053D2006D616C204D6F64652053756363657373F3
:1053E20021210D0A0043414E204255532053686942
:1053F200656C6420696E6974206F6B2100564D44A0
:1054020050455F003A323A007C005F564D445045A9
:10541200007265636565697665206F6B0073656E02
:1054220064206F6B0043414E2042555320536869FC
:10543200656C6420696E6974206661696C0020493C
:105442006E69742043414E2042555320536869656A
:105452006C6420616761696E004E696E74656E648A
:105462006F004E696E74656E646F2052564C2D4308
:105472004E542D30312D5452004E696E74656E6457
:105482006F2052564C2D434E542D30312D55430032
:105492004E696E74656E646F2052564C2D574243AE
:1054A2002D303100576972656C65737320436F6EDE
:0854B20074726F6C6C657200EE
:00000001FF
